{
  "contractName": "Prescription",
  "abi": [
    {
      "constant": true,
      "inputs": [
        {
          "name": "",
          "type": "uint256"
        }
      ],
      "name": "prescriptions",
      "outputs": [
        {
          "name": "id",
          "type": "uint256"
        },
        {
          "name": "pwallet",
          "type": "address"
        },
        {
          "name": "dwallet",
          "type": "address"
        },
        {
          "name": "pname",
          "type": "string"
        },
        {
          "name": "dname",
          "type": "string"
        },
        {
          "name": "data",
          "type": "string"
        },
        {
          "name": "timestamp",
          "type": "string"
        }
      ],
      "payable": false,
      "stateMutability": "view",
      "type": "function",
      "signature": "0x31dfc91b"
    },
    {
      "constant": true,
      "inputs": [],
      "name": "prescriptionCount",
      "outputs": [
        {
          "name": "",
          "type": "uint256"
        }
      ],
      "payable": false,
      "stateMutability": "view",
      "type": "function",
      "signature": "0xb6558498"
    },
    {
      "anonymous": false,
      "inputs": [
        {
          "indexed": false,
          "name": "_data",
          "type": "string"
        }
      ],
      "name": "Event",
      "type": "event",
      "signature": "0x8892e0cf71abc548dd039256eccac2634fe4a4ac120c01efacb9fc4bed3fe60d"
    },
    {
      "constant": false,
      "inputs": [
        {
          "name": "_receiver",
          "type": "address"
        },
        {
          "name": "_pname",
          "type": "string"
        },
        {
          "name": "_dname",
          "type": "string"
        },
        {
          "name": "_data",
          "type": "string"
        },
        {
          "name": "_timestamp",
          "type": "string"
        }
      ],
      "name": "prescribe",
      "outputs": [],
      "payable": false,
      "stateMutability": "nonpayable",
      "type": "function",
      "signature": "0x67b95804"
    }
  ],
  "bytecode": "0x608060405234801561001057600080fd5b50610ba2806100206000396000f3fe608060405260043610610057576000357c0100000000000000000000000000000000000000000000000000000000900463ffffffff16806331dfc91b1461005c57806367b95804146102c1578063b65584981461056e575b600080fd5b34801561006857600080fd5b506100956004803603602081101561007f57600080fd5b8101908080359060200190929190505050610599565b604051808881526020018773ffffffffffffffffffffffffffffffffffffffff1673ffffffffffffffffffffffffffffffffffffffff1681526020018673ffffffffffffffffffffffffffffffffffffffff1673ffffffffffffffffffffffffffffffffffffffff16815260200180602001806020018060200180602001858103855289818151815260200191508051906020019080838360005b8381101561014b578082015181840152602081019050610130565b50505050905090810190601f1680156101785780820380516001836020036101000a031916815260200191505b50858103845288818151815260200191508051906020019080838360005b838110156101b1578082015181840152602081019050610196565b50505050905090810190601f1680156101de5780820380516001836020036101000a031916815260200191505b50858103835287818151815260200191508051906020019080838360005b838110156102175780820151818401526020810190506101fc565b50505050905090810190601f1680156102445780820380516001836020036101000a031916815260200191505b50858103825286818151815260200191508051906020019080838360005b8381101561027d578082015181840152602081019050610262565b50505050905090810190601f1680156102aa5780820380516001836020036101000a031916815260200191505b509b50505050505050505050505060405180910390f35b3480156102cd57600080fd5b5061056c600480360360a08110156102e457600080fd5b81019080803573ffffffffffffffffffffffffffffffffffffffff1690602001909291908035906020019064010000000081111561032157600080fd5b82018360208201111561033357600080fd5b8035906020019184600183028401116401000000008311171561035557600080fd5b91908080601f016020809104026020016040519081016040528093929190818152602001838380828437600081840152601f19601f820116905080830192505050505050509192919290803590602001906401000000008111156103b857600080fd5b8201836020820111156103ca57600080fd5b803590602001918460018302840111640100000000831117156103ec57600080fd5b91908080601f016020809104026020016040519081016040528093929190818152602001838380828437600081840152601f19601f8201169050808301925050505050505091929192908035906020019064010000000081111561044f57600080fd5b82018360208201111561046157600080fd5b8035906020019184600183028401116401000000008311171561048357600080fd5b91908080601f016020809104026020016040519081016040528093929190818152602001838380828437600081840152601f19601f820116905080830192505050505050509192919290803590602001906401000000008111156104e657600080fd5b8201836020820111156104f857600080fd5b8035906020019184600183028401116401000000008311171561051a57600080fd5b91908080601f016020809104026020016040519081016040528093929190818152602001838380828437600081840152601f19601f82011690508083019250505050505050919291929050505061087b565b005b34801561057a57600080fd5b5061058361092c565b6040518082815260200191505060405180910390f35b60006020528060005260406000206000915090508060000154908060010160009054906101000a900473ffffffffffffffffffffffffffffffffffffffff16908060020160009054906101000a900473ffffffffffffffffffffffffffffffffffffffff1690806003018054600181600116156101000203166002900480601f0160208091040260200160405190810160405280929190818152602001828054600181600116156101000203166002900480156106975780601f1061066c57610100808354040283529160200191610697565b820191906000526020600020905b81548152906001019060200180831161067a57829003601f168201915b505050505090806004018054600181600116156101000203166002900480601f0160208091040260200160405190810160405280929190818152602001828054600181600116156101000203166002900480156107355780601f1061070a57610100808354040283529160200191610735565b820191906000526020600020905b81548152906001019060200180831161071857829003601f168201915b505050505090806005018054600181600116156101000203166002900480601f0160208091040260200160405190810160405280929190818152602001828054600181600116156101000203166002900480156107d35780601f106107a8576101008083540402835291602001916107d3565b820191906000526020600020905b8154815290600101906020018083116107b657829003601f168201915b505050505090806006018054600181600116156101000203166002900480601f0160208091040260200160405190810160405280929190818152602001828054600181600116156101000203166002900480156108715780601f1061084657610100808354040283529160200191610871565b820191906000526020600020905b81548152906001019060200180831161085457829003601f168201915b5050505050905087565b610889848487338686610932565b7f8892e0cf71abc548dd039256eccac2634fe4a4ac120c01efacb9fc4bed3fe60d826040518080602001828103825283818151815260200191508051906020019080838360005b838110156108eb5780820151818401526020810190506108d0565b50505050905090810190601f1680156109185780820380516001836020036101000a031916815260200191505b509250505060405180910390a15050505050565b60015481565b60016000815480929190600101919050555060e06040519081016040528060015481526020018573ffffffffffffffffffffffffffffffffffffffff1681526020018473ffffffffffffffffffffffffffffffffffffffff1681526020018781526020018681526020018381526020018281525060008060015481526020019081526020016000206000820151816000015560208201518160010160006101000a81548173ffffffffffffffffffffffffffffffffffffffff021916908373ffffffffffffffffffffffffffffffffffffffff16021790555060408201518160020160006101000a81548173ffffffffffffffffffffffffffffffffffffffff021916908373ffffffffffffffffffffffffffffffffffffffff1602179055506060820151816003019080519060200190610a6e929190610ad1565b506080820151816004019080519060200190610a8b929190610ad1565b5060a0820151816005019080519060200190610aa8929190610ad1565b5060c0820151816006019080519060200190610ac5929190610ad1565b50905050505050505050565b828054600181600116156101000203166002900490600052602060002090601f016020900481019282601f10610b1257805160ff1916838001178555610b40565b82800160010185558215610b40579182015b82811115610b3f578251825591602001919060010190610b24565b5b509050610b4d9190610b51565b5090565b610b7391905b80821115610b6f576000816000905550600101610b57565b5090565b9056fea165627a7a72305820782d3d8471b0a14219c583971e0c457cc69282bfd8568eb57844112a4e4f29c50029",
  "source": "pragma solidity 0.5.0;\r\n\r\ncontract Prescription {\r\n    // Model a Candidate\r\n    struct Prescriptions {\r\n        uint id;\r\n        address pwallet;\r\n        address dwallet;\r\n        string pname;\r\n        string dname;\r\n        string data;\r\n        string timestamp;\r\n    }\r\n\r\n    // Store Candidates\r\n    // Fetch Candidate\r\n    mapping(uint => Prescriptions) public prescriptions;\r\n    // Store Candidates Count\r\n    uint public prescriptionCount;\r\n\r\n    // voted event\r\n    event Event (\r\n        string _data\r\n    );\r\n\r\n    function addPrescription (string memory _pname,string memory _dname,address _pwallet,address _dwallet,string memory _data,string memory _timestamp) private {\r\n        prescriptionCount ++;\r\n        prescriptions[prescriptionCount] = Prescriptions(prescriptionCount,_pwallet,_dwallet,_pname,_dname, _data,_timestamp);\r\n    }\r\n\r\n    function prescribe (address _receiver,string memory _pname,string memory _dname,string memory _data,string memory _timestamp) public {\r\n\r\n        addPrescription( _pname,_dname,_receiver,msg.sender,_data,_timestamp);\r\n        // update candidate vote Count\r\n        // trigger voted event\r\n        emit Event(_data);\r\n    }\r\n    \r\n}\r\n",
  "sourcePath": "D:/Project/JS/PrescriptionBlockchain/prescription/contracts/Prescription.sol",
  "compiler": {
    "name": "solc",
    "version": "0.5.0+commit.1d4f565a.Emscripten.clang"
  },
  "schemaVersion": "3.0.3",
  "updatedAt": "2019-04-21T19:45:16.083Z",
  "devdoc": {
    "methods": {}
  },
  "userdoc": {
    "methods": {}
  }
}