{
  "contractName": "Prescription",
  "abi": [
    {
      "constant": true,
      "inputs": [],
      "name": "candidatesCount",
      "outputs": [
        {
          "name": "",
          "type": "uint256"
        }
      ],
      "payable": false,
      "stateMutability": "view",
      "type": "function",
      "signature": "0x2d35a8a2"
    },
    {
      "constant": true,
      "inputs": [
        {
          "name": "",
          "type": "uint256"
        }
      ],
      "name": "candidates",
      "outputs": [
        {
          "name": "id",
          "type": "uint256"
        },
        {
          "name": "pname",
          "type": "address"
        },
        {
          "name": "dname",
          "type": "address"
        },
        {
          "name": "data",
          "type": "string"
        }
      ],
      "payable": false,
      "stateMutability": "view",
      "type": "function",
      "signature": "0x3477ee2e"
    },
    {
      "anonymous": false,
      "inputs": [
        {
          "indexed": false,
          "name": "_data",
          "type": "string"
        }
      ],
      "name": "Event",
      "type": "event",
      "signature": "0x8892e0cf71abc548dd039256eccac2634fe4a4ac120c01efacb9fc4bed3fe60d"
    },
    {
      "constant": false,
      "inputs": [
        {
          "name": "_receiver",
          "type": "address"
        },
        {
          "name": "_data",
          "type": "string"
        }
      ],
      "name": "vote",
      "outputs": [],
      "payable": false,
      "stateMutability": "nonpayable",
      "type": "function",
      "signature": "0x1bf533a4"
    }
  ],
  "bytecode": "0x608060405234801561001057600080fd5b5061064d806100206000396000f3fe608060405260043610610057576000357c0100000000000000000000000000000000000000000000000000000000900463ffffffff1680631bf533a41461005c5780632d35a8a2146101445780633477ee2e1461016f575b600080fd5b34801561006857600080fd5b506101426004803603604081101561007f57600080fd5b81019080803573ffffffffffffffffffffffffffffffffffffffff169060200190929190803590602001906401000000008111156100bc57600080fd5b8201836020820111156100ce57600080fd5b803590602001918460018302840111640100000000831117156100f057600080fd5b91908080601f016020809104026020016040519081016040528093929190818152602001838380828437600081840152601f19601f820116905080830192505050505050509192919290505050610290565b005b34801561015057600080fd5b5061015961033b565b6040518082815260200191505060405180910390f35b34801561017b57600080fd5b506101a86004803603602081101561019257600080fd5b8101908080359060200190929190505050610341565b604051808581526020018473ffffffffffffffffffffffffffffffffffffffff1673ffffffffffffffffffffffffffffffffffffffff1681526020018373ffffffffffffffffffffffffffffffffffffffff1673ffffffffffffffffffffffffffffffffffffffff16815260200180602001828103825283818151815260200191508051906020019080838360005b83811015610252578082015181840152602081019050610237565b50505050905090810190601f16801561027f5780820380516001836020036101000a031916815260200191505b509550505050505060405180910390f35b61029b823383610449565b7f8892e0cf71abc548dd039256eccac2634fe4a4ac120c01efacb9fc4bed3fe60d816040518080602001828103825283818151815260200191508051906020019080838360005b838110156102fd5780820151818401526020810190506102e2565b50505050905090810190601f16801561032a5780820380516001836020036101000a031916815260200191505b509250505060405180910390a15050565b60015481565b60006020528060005260406000206000915090508060000154908060010160009054906101000a900473ffffffffffffffffffffffffffffffffffffffff16908060020160009054906101000a900473ffffffffffffffffffffffffffffffffffffffff1690806003018054600181600116156101000203166002900480601f01602080910402602001604051908101604052809291908181526020018280546001816001161561010002031660029004801561043f5780601f106104145761010080835404028352916020019161043f565b820191906000526020600020905b81548152906001019060200180831161042257829003601f168201915b5050505050905084565b60016000815480929190600101919050555060806040519081016040528060015481526020018473ffffffffffffffffffffffffffffffffffffffff1681526020018373ffffffffffffffffffffffffffffffffffffffff1681526020018281525060008060015481526020019081526020016000206000820151816000015560208201518160010160006101000a81548173ffffffffffffffffffffffffffffffffffffffff021916908373ffffffffffffffffffffffffffffffffffffffff16021790555060408201518160020160006101000a81548173ffffffffffffffffffffffffffffffffffffffff021916908373ffffffffffffffffffffffffffffffffffffffff160217905550606082015181600301908051906020019061057392919061057c565b50905050505050565b828054600181600116156101000203166002900490600052602060002090601f016020900481019282601f106105bd57805160ff19168380011785556105eb565b828001600101855582156105eb579182015b828111156105ea5782518255916020019190600101906105cf565b5b5090506105f891906105fc565b5090565b61061e91905b8082111561061a576000816000905550600101610602565b5090565b9056fea165627a7a723058202a34d5a56bb1167638a8128ca87aafdc1348e109a59cb210f7efe81f4887238e0029",
  "source": "pragma solidity 0.5.00;\r\n\r\ncontract Prescription {\r\n    // Model a Candidate\r\n    struct Candidate {\r\n        uint id;\r\n        address pname;\r\n        address dname;\r\n        string data;\r\n    }\r\n\r\n    // Store Candidates\r\n    // Fetch Candidate\r\n    mapping(uint => Candidate) public candidates;\r\n    // Store Candidates Count\r\n    uint public candidatesCount;\r\n\r\n    // voted event\r\n    event Event (\r\n        string _data\r\n    );\r\n\r\n    function addCandidate (address _pname,address _dname,string memory _data) private {\r\n        candidatesCount ++;\r\n        candidates[candidatesCount] = Candidate(candidatesCount,_pname,_dname, _data);\r\n    }\r\n\r\n    function vote (address _receiver,string memory _data) public {\r\n\r\n\r\n\r\n        addCandidate(_receiver,msg.sender,_data);\r\n        // update candidate vote Count\r\n        // trigger voted event\r\n        emit Event(_data);\r\n    }\r\n}\r\n",
  "sourcePath": "D:/Project/JS/VoteBlockchain/prescription/contracts/Prescription.sol",
  "compiler": {
    "name": "solc",
    "version": "0.5.0+commit.1d4f565a.Emscripten.clang"
  },
  "schemaVersion": "3.0.3",
  "updatedAt": "2019-04-17T07:45:52.471Z",
  "devdoc": {
    "methods": {}
  },
  "userdoc": {
    "methods": {}
  }
}